{
  "contractName": "Bank",
  "abi": [
    {
      "constant": true,
      "inputs": [
        {
          "name": "",
          "type": "address"
        }
      ],
      "name": "accounts",
      "outputs": [
        {
          "name": "",
          "type": "uint256"
        }
      ],
      "payable": false,
      "stateMutability": "view",
      "type": "function"
    },
    {
      "constant": false,
      "inputs": [
        {
          "name": "money",
          "type": "uint256"
        }
      ],
      "name": "deposit",
      "outputs": [],
      "payable": false,
      "stateMutability": "nonpayable",
      "type": "function"
    },
    {
      "constant": false,
      "inputs": [
        {
          "name": "money",
          "type": "uint256"
        }
      ],
      "name": "withdraw",
      "outputs": [],
      "payable": false,
      "stateMutability": "nonpayable",
      "type": "function"
    }
  ],
  "bytecode": "0x608060405234801561001057600080fd5b506101ef806100206000396000f300608060405260043610610057576000357c0100000000000000000000000000000000000000000000000000000000900463ffffffff1680632e1a7d4d1461005c5780635e5c06e214610089578063b6b55f25146100e0575b600080fd5b34801561006857600080fd5b506100876004803603810190808035906020019092919050505061010d565b005b34801561009557600080fd5b506100ca600480360381019080803573ffffffffffffffffffffffffffffffffffffffff16906020019092919050505061015c565b6040518082815260200191505060405180910390f35b3480156100ec57600080fd5b5061010b60048036038101908080359060200190929190505050610174565b005b806000803373ffffffffffffffffffffffffffffffffffffffff1673ffffffffffffffffffffffffffffffffffffffff1681526020019081526020016000206000828254039250508190555050565b60006020528060005260406000206000915090505481565b806000803373ffffffffffffffffffffffffffffffffffffffff1673ffffffffffffffffffffffffffffffffffffffff16815260200190815260200160002060008282540192505081905550505600a165627a7a72305820479d82a7eafb7e6b85d3d61f3af9a1389a277f418ed48f051b4fe3cfd9ef5fba0029",
  "source": "// pragma solidity ^0.4.22;\n\n\n// contract Bank {\n//   constructor() {\n//   }\n// }\npragma solidity ^0.4.24;\n \ncontract Bank {\n    mapping(address => uint) public accounts;\n \n    function deposit(uint money) public {\n       accounts[msg.sender] += money;\n    }\n    \n    function withdraw(uint money) public {\n       accounts[msg.sender] -= money;\n    }\n}\n",
  "sourcePath": "D:\\Rajesh\\blockchain\\contracts\\Bank.sol",
  "compiler": {
    "name": "solc",
    "version": "0.4.24+commit.e67f0147.Emscripten.clang"
  },
  "schemaVersion": "2.0.1",
  "updatedAt": "2018-12-06T14:28:28.796Z"
}