{
  "contractName": "calulations",
  "abi": [
    {
      "constant": false,
      "inputs": [],
      "name": "newAdd",
      "outputs": [
        {
          "name": "",
          "type": "uint256"
        }
      ],
      "payable": false,
      "stateMutability": "nonpayable",
      "type": "function"
    }
  ],
  "bytecode": "0x6080604052348015600f57600080fd5b5060b48061001e6000396000f300608060405260043610603f576000357c0100000000000000000000000000000000000000000000000000000000900463ffffffff16806359a35e00146044575b600080fd5b348015604f57600080fd5b506056606c565b6040518082815260200191505060405180910390f35b600080600080600a9250808301915060029050819350505050905600a165627a7a7230582075114054ee0c050ae0cbc664f5ef81616d1801f6291671a34fcb110e8658eb890029",
  "source": "pragma solidity ^0.4.22;\n\n\ncontract calulations {\n  \n  function newAdd() public returns(uint){\n    uint a = 10;\n    uint c = a + b;\n    uint b = 2;\n\n    return c;\n  }\n}\n",
  "sourcePath": "D:\\Rajesh\\blockchain\\contracts\\calulations.sol",
  "compiler": {
    "name": "solc",
    "version": "0.4.24+commit.e67f0147.Emscripten.clang"
  },
  "schemaVersion": "2.0.1",
  "updatedAt": "2018-12-06T14:19:06.770Z"
}