{
  "contractName": "client",
  "abi": [
    {
      "constant": false,
      "inputs": [],
      "name": "workWithInheritance",
      "outputs": [
        {
          "name": "",
          "type": "uint256"
        }
      ],
      "payable": false,
      "stateMutability": "nonpayable",
      "type": "function"
    }
  ],
  "bytecode": "0x608060405234801561001057600080fd5b506103b8806100206000396000f300608060405260043610610041576000357c0100000000000000000000000000000000000000000000000000000000900463ffffffff168063b934ae1814610046575b600080fd5b34801561005257600080fd5b5061005b610071565b6040518082815260200191505060405180910390f35b60008060008060149250600a9150610087610160565b604051809103906000f0801580156100a3573d6000803e3d6000fd5b5090508073ffffffffffffffffffffffffffffffffffffffff1663b67d77c584846040518363ffffffff167c01000000000000000000000000000000000000000000000000000000000281526004018083815260200182815260200192505050602060405180830381600087803b15801561011d57600080fd5b505af1158015610131573d6000803e3d6000fd5b505050506040513d602081101561014757600080fd5b8101908080519060200190929190505050935050505090565b60405161021c80610171833901905600608060405234801561001057600080fd5b506101fc806100206000396000f300608060405260043610610062576000357c0100000000000000000000000000000000000000000000000000000000900463ffffffff168063165c4a1614610067578063b67d77c5146100b2578063cad0899b146100fd578063f88e9fbf14610148575b600080fd5b34801561007357600080fd5b5061009c6004803603810190808035906020019092919080359060200190929190505050610193565b6040518082815260200191505060405180910390f35b3480156100be57600080fd5b506100e760048036038101908080359060200190929190803590602001909291905050506101a0565b6040518082815260200191505060405180910390f35b34801561010957600080fd5b5061013260048036038101908080359060200190929190803590602001909291905050506101ad565b6040518082815260200191505060405180910390f35b34801561015457600080fd5b5061017d60048036038101908080359060200190929190803590602001909291905050506101ba565b6040518082815260200191505060405180910390f35b6000818302905092915050565b6000818303905092915050565b6000818301905092915050565b600081838115156101c757fe5b049050929150505600a165627a7a72305820adfce6336f3f2dc00953d903968b65a0b7a498082c779164af560ceb2601cebf0029a165627a7a72305820b3908bb92e880b7149eb5061fc2b543bd07aa0edac82e2e021a095e2338dc88c0029",
  "source": "pragma solidity ^0.4.22;\n\n\ncontract sumContract {\n  function sum(uint a, uint b) public returns(uint) {\n    return a + b;\n    }\n}\n\ncontract multiContract is sumContract {\n  function multiply(uint a, uint b) public returns (uint) {\n    return a * b;\n  }\n} \n\ncontract divideContract is sumContract {\n  function divide(uint a, uint b) public returns (uint) {\n    return a/b;\n  }\n}\n\ncontract subContract is sumContract, multiContract,divideContract {\n  function sub(uint a, uint b) public returns (uint) {\n    return a-b;\n  }\n}\ncontract client{\n  function workWithInheritance() public returns (uint){\n    uint a = 20;\n    uint b = 10;\n    subContract subT = new subContract();\n    return subT.sub(a,b);\n\n  }\n}\n\n",
  "sourcePath": "D:\\Rajesh\\blockchain\\contracts\\sumContract.sol",
  "compiler": {
    "name": "solc",
    "version": "0.4.24+commit.e67f0147.Emscripten.clang"
  },
  "schemaVersion": "2.0.1",
  "updatedAt": "2018-10-30T08:27:22.820Z"
}