{
  "contractName": "generalStructure",
  "abi": [
    {
      "constant": true,
      "inputs": [],
      "name": "stateIntVariable",
      "outputs": [
        {
          "name": "",
          "type": "int256"
        }
      ],
      "payable": false,
      "stateMutability": "view",
      "type": "function"
    },
    {
      "anonymous": false,
      "inputs": [
        {
          "indexed": false,
          "name": "",
          "type": "address"
        },
        {
          "indexed": false,
          "name": "",
          "type": "int256"
        }
      ],
      "name": "ageRead",
      "type": "event"
    },
    {
      "constant": false,
      "inputs": [
        {
          "name": "_personIdentifier",
          "type": "address"
        }
      ],
      "name": "getAge",
      "outputs": [
        {
          "name": "",
          "type": "uint256"
        }
      ],
      "payable": true,
      "stateMutability": "payable",
      "type": "function"
    }
  ],
  "bytecode": "0x608060405234801561001057600080fd5b506103d1806100206000396000f30060806040526004361061004c576000357c0100000000000000000000000000000000000000000000000000000000900463ffffffff168063384515981461005157806350b527f61461009b575b600080fd5b610085600480360381019080803573ffffffffffffffffffffffffffffffffffffffff1690602001909291905050506100c6565b6040518082815260200191505060405180910390f35b3480156100a757600080fd5b506100b06102ad565b6040518082815260200191505060405180910390f35b600080600260009054906101000a900473ffffffffffffffffffffffffffffffffffffffff1673ffffffffffffffffffffffffffffffffffffffff163373ffffffffffffffffffffffffffffffffffffffff1614156102a7576080604051908101604052806040805190810160405280600681526020017f72616a65736800000000000000000000000000000000000000000000000000008152508152602001600d815260200160011515815260200160036040519080825280602002602001820160405280156101a65781602001602082028038833980820191505090505b50815250600360008201518160000190805190602001906101c89291906102b3565b506020820151816001015560408201518160020160006101000a81548160ff021916908315150217905550606082015181600301908051906020019061020f929190610333565b50905050600090507f0a126746498d1038daef0cca54e5095cd6b71ea610e3e866455abc985d633c7d600260009054906101000a900473ffffffffffffffffffffffffffffffffffffffff16600054604051808373ffffffffffffffffffffffffffffffffffffffff1673ffffffffffffffffffffffffffffffffffffffff1681526020018281526020019250505060405180910390a15b50919050565b60005481565b828054600181600116156101000203166002900490600052602060002090601f016020900481019282601f106102f457805160ff1916838001178555610322565b82800160010185558215610322579182015b82811115610321578251825591602001919060010190610306565b5b50905061032f9190610380565b5090565b82805482825590600052602060002090810192821561036f579160200282015b8281111561036e578251825591602001919060010190610353565b5b50905061037c9190610380565b5090565b6103a291905b8082111561039e576000816000905550600101610386565b5090565b905600a165627a7a72305820f5e91f00ba6fa8f3f0949d5b567b6ac423ef10220e3b7ca79720f48bfb44631a0029",
  "source": "pragma solidity ^0.4.22;\n\n\ncontract generalStructure {\n\n //state variables\n  int public stateIntVariable; //variable of integer type\n  string stateStringVariable; //variable of string type\n  address personIdentifier; //variable of address type\n  bool constant hasIncome =true; // variable of contant nature\n  myStruct human;\n\n//structure definition\n  struct myStruct{\n\n    string name; //variable of type string\n    uint myAge; //variable of unsigned integer type\n    bool isMarried; // variable of boolean type\n    uint[] bankAccountsNumbers; //variable - dynamic array of unsigned integer\n  }\n//modifier declaration\n  modifier onlyBy(){\n    if(msg.sender == personIdentifier){\n      _;\n    }\n  }\n//event declaration\n  event ageRead(address, int);\n\n//enum declartion\n  enum gender {male, female}\n\n//function definition\n  function getAge(address _personIdentifier) onlyBy() payable external returns (uint){\n\n\n    human = myStruct(\"rajesh\",13,true,new uint[](3)); //using struct myStruct\n\n    gender _gender = gender.male;\n\n    ageRead(personIdentifier, stateIntVariable);\n  \n  }\n}\n\n",
  "sourcePath": "D:\\Rajesh\\blockchain\\contracts\\generalStructure.sol",
  "compiler": {
    "name": "solc",
    "version": "0.4.24+commit.e67f0147.Emscripten.clang"
  },
  "schemaVersion": "2.0.1",
  "updatedAt": "2018-10-31T04:13:21.186Z"
}