{
  "contractName": "multiContract",
  "abi": [
    {
      "constant": false,
      "inputs": [
        {
          "name": "a",
          "type": "uint256"
        },
        {
          "name": "b",
          "type": "uint256"
        }
      ],
      "name": "sum",
      "outputs": [
        {
          "name": "",
          "type": "uint256"
        }
      ],
      "payable": false,
      "stateMutability": "nonpayable",
      "type": "function"
    },
    {
      "constant": false,
      "inputs": [
        {
          "name": "a",
          "type": "uint256"
        },
        {
          "name": "b",
          "type": "uint256"
        }
      ],
      "name": "multiply",
      "outputs": [
        {
          "name": "",
          "type": "uint256"
        }
      ],
      "payable": false,
      "stateMutability": "nonpayable",
      "type": "function"
    }
  ],
  "bytecode": "0x608060405234801561001057600080fd5b50610124806100206000396000f3006080604052600436106049576000357c0100000000000000000000000000000000000000000000000000000000900463ffffffff168063165c4a1614604e578063cad0899b146096575b600080fd5b348015605957600080fd5b506080600480360381019080803590602001909291908035906020019092919050505060de565b6040518082815260200191505060405180910390f35b34801560a157600080fd5b5060c8600480360381019080803590602001909291908035906020019092919050505060eb565b6040518082815260200191505060405180910390f35b6000818302905092915050565b60008183019050929150505600a165627a7a72305820d067c316b2ffa41593070c81d7daadfbf5193846ef1108d72f4309a7187688b70029",
  "source": "pragma solidity ^0.4.22;\n\n\ncontract sumContract {\n  function sum(uint a, uint b) public returns(uint) {\n    return a + b;\n    }\n}\n\ncontract multiContract is sumContract {\n  function multiply(uint a, uint b) public returns (uint) {\n    return a * b;\n  }\n} \n\ncontract divideContract is sumContract {\n  function divide(uint a, uint b) public returns (uint) {\n    return a/b;\n  }\n}\n\ncontract subContract is sumContract, multiContract,divideContract {\n  function sub(uint a, uint b) public returns (uint) {\n    return a-b;\n  }\n}\ncontract client{\n  function workWithInheritance() public returns (uint){\n    uint a = 20;\n    uint b = 10;\n    subContract subT = new subContract();\n    return subT.sub(a,b);\n\n  }\n}\n\n",
  "sourcePath": "D:\\Rajesh\\blockchain\\contracts\\sumContract.sol",
  "compiler": {
    "name": "solc",
    "version": "0.4.24+commit.e67f0147.Emscripten.clang"
  },
  "schemaVersion": "2.0.1",
  "updatedAt": "2018-10-30T08:27:22.823Z"
}