{
  "contractName": "newH",
  "abi": [
    {
      "constant": true,
      "inputs": [],
      "name": "getValue",
      "outputs": [
        {
          "name": "",
          "type": "uint256"
        }
      ],
      "payable": false,
      "stateMutability": "view",
      "type": "function"
    },
    {
      "constant": false,
      "inputs": [
        {
          "name": "_value",
          "type": "uint256"
        }
      ],
      "name": "setValue",
      "outputs": [],
      "payable": false,
      "stateMutability": "nonpayable",
      "type": "function"
    }
  ],
  "bytecode": "0x608060405234801561001057600080fd5b5060df8061001f6000396000f3006080604052600436106049576000357c0100000000000000000000000000000000000000000000000000000000900463ffffffff1680632096525514604e57806355241077146076575b600080fd5b348015605957600080fd5b50606060a0565b6040518082815260200191505060405180910390f35b348015608157600080fd5b50609e6004803603810190808035906020019092919050505060a9565b005b60008054905090565b80600081905550505600a165627a7a7230582017295f06b846e09acf6504e0982cf50e0329eab2eb999b2c50189d8781096f2a0029",
  "source": "pragma solidity ^0.4.22;\n\n\ncontract newH {\n  uint private simpleInt;\n\n  function getValue() public view returns(uint){\n    return simpleInt;\n  }\n  function setValue(uint _value) public {\n    simpleInt = _value;\n  }\n}\n\ncontract client {\n  function useNew() public returns(uint) {\n    newH myObj = new newH();\n\n    myObj.setValue(10);\n\n    return myObj.getValue();\n    \n  }\n}\n",
  "sourcePath": "D:\\Rajesh\\blockchain\\contracts\\newH.sol",
  "compiler": {
    "name": "solc",
    "version": "0.4.24+commit.e67f0147.Emscripten.clang"
  },
  "schemaVersion": "2.0.1",
  "updatedAt": "2018-10-31T04:13:21.348Z"
}