{
  "contractName": "raj",
  "abi": [
    {
      "constant": false,
      "inputs": [],
      "name": "print",
      "outputs": [
        {
          "name": "",
          "type": "string"
        }
      ],
      "payable": false,
      "stateMutability": "nonpayable",
      "type": "function"
    }
  ],
  "bytecode": "0x608060405234801561001057600080fd5b5061013f806100206000396000f300608060405260043610610041576000357c0100000000000000000000000000000000000000000000000000000000900463ffffffff16806313bdfacd14610046575b600080fd5b34801561005257600080fd5b5061005b6100d6565b6040518080602001828103825283818151815260200191508051906020019080838360005b8381101561009b578082015181840152602081019050610080565b50505050905090810190601f1680156100c85780820380516001836020036101000a031916815260200191505b509250505060405180910390f35b60606040805190810160405280601081526020017f6869696969692e2e2e2e2e2e2e2e2e2e000000000000000000000000000000008152509050905600a165627a7a723058203973cf6c2c4cb202d99fb5faf7fa924210094f1646610024bd0adc14ebd63d150029",
  "source": "pragma solidity ^0.4.22;\n\n\ncontract raj {\n\n  function print() returns(string){\n    return \"hiiiii..........\";\n  }\n}\n\n",
  "sourcePath": "D:\\Rajesh\\blockchain\\contracts\\raj.sol",
  "compiler": {
    "name": "solc",
    "version": "0.4.24+commit.e67f0147.Emscripten.clang"
  },
  "schemaVersion": "2.0.1",
  "updatedAt": "2018-12-06T14:19:05.864Z"
}